S0110000646562756767696E672E7372656367
S113000014C03CC03BC03AC039C038C037C036C049
S113001035C034C033C032C031C030C02FC02EC050
S11300202DC02CC02BC02AC029C011241FBECFED67
S1130030CDBF42E650E020E630E08AE092E0E82FCF
S1130040F92FA22FB32F842F952FEA17FB0729F03E
S113005005900D928A179B07D9F723E630E082E6D4
S113006090E0A82FB92F822F932F8A179B0721F096
S11300701D928A179B07E1F741D0C5C0C1CF8FE01D
S113008087BB84E088BB8FEF81BB80E482BB08958B
S1130090CF93DF93CDB7DD27C450CDBF4CE251E001
S11300A060E070E049835A836B837C832091620013
S11300B02F5F20936200BC0180E090E02CE231E0ED
S11300C040E050E02AD0C901DA0189839A83AB83E6
S11300D0BC8389819A81AB81BC81892B8A2B8B2B30
S11300E041F089819A81AB81BC810197A109B10951
S11300F0ECCFCC5FCDBFDF91CF910895C0DFC6E0D8
S113010088EE93E0C5DF8091600082BB88EE93E0C7
S1130110BFDFC2BBF5CF68940013E894A0E0B0E061
S1130120E3E9F0E01DC0EFEFE7F959016A015E234E
S1130130550FEE08FE2C87019B01AC019E23990FFD
S1130140660B762FCB0131D0CDB7DD27EAE01FC097
S11301502F923F924F925F926F927F928F929F92D3
S1130160AF92BF92CF92DF92EF92FF920F931F93C1
S1130170CF93DF93CDB7CA1BCDBFDD2709942A885F
S1130180398848885F846E847D848C849B84AA84A7
S1130190B984C884DF80EE80FD800C811B81AA8134
S11301A0D981CE0FCDBFCA2F0895DF93CF939F92ED
S11301B0A0E49A2E0024D001E001F00116950795E1
S11301C0F794E794D794C794B794A79448F4106825
S11301D0A20FB31FC41FD51FE61FF71F081E191E49
S11301E0220F331F441F551F661F771F881F991F37
S11301F09A9421F79D01AE01BF01C00111249F9083
S10D0200CF91DF910895F894FFCF29
S105020A2000CE
S9030000FC
