:1000000014C0D8C0D7C0D6C0D5C0D4C0D3C0D2C009
:10001000D1C0D0C0CFC0CEC0CDC0CCC0CBC0CAC074
:10002000C9C0C8C0C7C0C6C0C5C011241FBECFED5F
:10003000CDBF10E0A0E6B0E0EAEBF1E002C0059031
:100040000D92A436B107D9F720E0A4E6B0E001C0D4
:100050001D92A536B207E1F79DD0ADC0CF93DF93D7
:10006000CDB7DD2787E390E02FE0FC01208388E314
:1000700090E024E0FC01208381E390E02FEFFC017D
:10008000208382E390E020E4FC0120830000DF91E4
:10009000CF910895CF93DF931F92CDB7DD2789834A
:1000A0008981882331F482E390E020E3FC012083FE
:1000B00005C082E390E026E0FC01208300000F9061
:1000C000DF91CF910895EF92FF920F931F93CF93FB
:1000D000DF93CDB7DD27C650CDBF9E838D831982B8
:1000E0001A821B821C828D819E819C0140E050E01F
:1000F000DA01C901880F991FAA1FBB1F880F991F1A
:10010000AA1FBB1F7C018D01EE0CFF1C001F111FDD
:10011000EE0CFF1C001F111F8E0D9F1DA01FB11F95
:10012000821B930BA40BB50B880F991FAA1FBB1F33
:10013000880F991FAA1FBB1F821B930BA40BB50B23
:10014000880F991FAA1FBB1F880F991FAA1FBB1FCB
:1001500089839A83AB83BC830BC089819A81AB81ED
:10016000BC810197A109B10989839A83AB83BC83C0
:1001700089819A81AB81BC81892B8A2B8B2B69F772
:100180000000CA5FCDBFDF91CF911F910F91FF900B
:10019000EF900895CF93DF93CDB7DD275FDF88EE33
:1001A00093E091DF80E076DF88EE93E08CDF81E002
:0A01B00071DFF5CF25CFF894FFCFE3
:0401BA00050200003A
:00000001FF
