:1000000014C058C057C056C055C054C053C052C089
:1000100051C050C04FC04EC04DC04CC04BC04AC074
:1000200049C048C047C046C045C011241FBECFEDDF
:10003000CDBF41D065C08FE087BB84E088BB8FEF28
:1000400081BB80E482BB0895811102C080E301C0BE
:1000500086E082BB0895CF93DF93CDB7DD27C450F0
:10006000CDBF19821A821B821C82BC0180E090E005
:100070002CE231E040E050E02AD069837A838B8320
:100080009C8389819A81AB81BC81892B8A2B8B2BA4
:1000900061F089819A81AB81BC810197A109B10985
:1000A00089839A83AB83BC83ECCFCC5FCDBFDF91D8
:1000B000CF910895A5CFBFDFD0E3C6E088EE93E0EF
:1000C000CADFD2BB88EE93E0C6DFC2BBF7CFEE2714
:1000D000FF27AA27BB2708C0A20FB31FE41FF51FE5
:1000E000220F331F441F551F969587957795679567
:1000F00098F37040A9F7009799F7BD01CF010895D3
:04010000F894FFCFA1
:00000001FF
