:1000000014C019C018C017C016C015C014C013C042
:1000100012C011C010C00FC00EC00DC00CC00BC06C
:100020000AC009C008C007C006C011241FBECFED1A
:10003000CDBF34D068C0E4CFDF93CF9300D000D0E1
:10004000CDB7DEB719821A821B821C82A0E0B0E015
:10005000BC01CD012CE231E040E050E03BD06983AF
:100060007A838B839C830BC089819A81AB81BC810D
:100070000197A109B10989839A83AB83BC838981E4
:100080009A81AB81BC810097A105B10569F70F90FA
:100090000F900F900F90CF91DF9108950BD088EEC5
:1000A00093E0CADF80E00FD088EE93E0C5DF81E007
:1000B0000AD0F5CF8FE087BB84E088BB8FEF81BB90
:1000C00080E482BB0895882311F480E301C086E0B8
:1000D00082BB0895FF27EE27BB27AA2760FF04C035
:1000E000A20FB31FE41FF51F220F331F441F551F1C
:1000F000969587957795679589F70097760771F7B5
:0A010000CF01BD010895F894FFCF70
:00000001FF
