:1000000011241FBECFEDCDBF41E650E020E630E029
:100010008AE291E0E82FF92FA22FB32F842F952F9A
:100020008A179B0729F005900D928A179B07D9F72D
:1000300025E630E081E690E0A82FB92F822F932F9C
:100040008A179B0721F01D928A179B07E1F734C09E
:100050008FE087BB84E088BB8FEF81BB80E482BBED
:100060000895811103C08091600001C086E082BBC9
:100070000895CF93DF93CDB7DD27C450CDBF6983FB
:100080007A838B839C8389819A81AB81BC81892B04
:100090008A2B8B2B61F089819A81AB81BC8101977E
:1000A000A109B10989839A83AB83BC83ECCFCC5F70
:1000B000CDBFDF91CF910895CBDF80EE93E9A4E02F
:1000C000B0E08093610090936200A0936300B093CE
:1000D0006400C6E0609161007091620080916300ED
:1000E00090916400C6DF8091600082BB60916100E6
:1000F000709162008091630090916400BADFC2BB8E
:100100008091610090916200A0916300B0916400C1
:10011000885B9B40A109B1098093610090936200C4
:0A012000A0936300B0936400D5CFF4
:01012A0020B4
:00000001FF
