:1000000011241FBECFEDCDBF41E650E020E630E029
:100010008CE691E0E82FF92FA22FB32F842F952F94
:100020008A179B0729F005900D928A179B07D9F72D
:1000300025E630E081E690E0A82FB92F822F932F9C
:100040008A179B0721F01D928A179B07E1F73DC095
:100050008FE087BB84E088BB8FEF81BB80E482BBED
:100060000895811103C08091600001C086E082BBC9
:100070000895CF93DF93CDB7DD27C450CDBF19824C
:100080001A821B821C822CE231E040E050E055D005
:1000900069837A838B839C8389819A81AB81BC81BC
:1000A000892B8A2B8B2B61F089819A81AB81BC8152
:1000B0000197A109B10989839A83AB83BC83ECCFF3
:1000C000CC5FCDBFDF91CF910895C2DF88EE93E082
:1000D000A0E0B0E08093610090936200A093630081
:1000E000B0936400C6E060916100709162008091FD
:1000F000630090916400BDDF8091600082BB6091DD
:100100006100709162008091630090916400B1DFA2
:10011000C2BB8091610090916200A0916300B09198
:1001200064000A97A109B10980936100909362006D
:10013000A0936300B0936400D6CFEE27FF27AA27D1
:10014000BB2708C0A20FB31FE41FF51F220F331FE8
:10015000441F551F969587957795679598F370403E
:0C016000A9F7009799F7BD01CF010895A1
:01016C002072
:00000001FF
