:1000000014C080C07FC07EC07DC07CC07BC07AC071
:1000100079C078C077C076C075C074C073C072C034
:1000200071C070C06FC06EC06DC011241FBECFED17
:10003000CDBF42E650E020E630E086E591E0E82FD3
:10004000F92FA22FB32F842F952FEA17FB0729F042
:1000500005900D928A179B07D9F722E630E082E6D9
:1000600090E0A82FB92F822F932F8A179B0721F09A
:100070001D928A179B07E1F746D06BC08FE087BBC4
:1000800084E088BB8FEF81BB80E482BB089581113F
:1000900003C08091600001C086E082BB0895CF93C9
:1000A000DF93CDB7DD27C450CDBF4CE251E060E017
:1000B00070E049835A836B837C83BC0180E090E0CD
:1000C0002CE231E040E050E02BD069837A838B83CF
:1000D0009C8389819A81AB81BC81892B8A2B8B2B54
:1000E00061F089819A81AB81BC810197A109B10935
:1000F00089839A83AB83BC83ECCFCC5FCDBFDF9188
:10010000CF9108957DCFBADFC6E088EE93E0C7DFD8
:100110008091600082BB88EE93E0C1DFC2BBF5CF67
:10012000EE27FF27AA27BB2708C0A20FB31FE41F93
:10013000F51F220F331F441F551F969587957795FE
:10014000679598F37040A9F7009799F7BD01CF0123
:060150000895F894FFCFB2
:0801560011241FBECFEDCDBF47
:10015E0010E0A0E6B0E0E4E7F1E002C005900D92F9
:06016E00A236B107D9F72B
:02017400200069
:00000001FF
